{
  "contractName": "Kelvin",
  "abi": [
    {
      "inputs": [],
      "stateMutability": "nonpayable",
      "type": "constructor"
    },
    {
      "anonymous": false,
      "inputs": [
        {
          "indexed": true,
          "internalType": "address",
          "name": "owner",
          "type": "address"
        },
        {
          "indexed": true,
          "internalType": "address",
          "name": "spender",
          "type": "address"
        },
        {
          "indexed": false,
          "internalType": "uint256",
          "name": "value",
          "type": "uint256"
        }
      ],
      "name": "Approval",
      "type": "event"
    },
    {
      "anonymous": false,
      "inputs": [
        {
          "indexed": true,
          "internalType": "address",
          "name": "from",
          "type": "address"
        },
        {
          "indexed": true,
          "internalType": "address",
          "name": "to",
          "type": "address"
        },
        {
          "indexed": false,
          "internalType": "uint256",
          "name": "value",
          "type": "uint256"
        }
      ],
      "name": "Transfer",
      "type": "event"
    },
    {
      "inputs": [
        {
          "internalType": "address",
          "name": "",
          "type": "address"
        },
        {
          "internalType": "address",
          "name": "",
          "type": "address"
        }
      ],
      "name": "allowance",
      "outputs": [
        {
          "internalType": "uint256",
          "name": "",
          "type": "uint256"
        }
      ],
      "stateMutability": "view",
      "type": "function"
    },
    {
      "inputs": [
        {
          "internalType": "address",
          "name": "",
          "type": "address"
        }
      ],
      "name": "balances",
      "outputs": [
        {
          "internalType": "uint256",
          "name": "",
          "type": "uint256"
        }
      ],
      "stateMutability": "view",
      "type": "function"
    },
    {
      "inputs": [],
      "name": "decimals",
      "outputs": [
        {
          "internalType": "uint256",
          "name": "",
          "type": "uint256"
        }
      ],
      "stateMutability": "view",
      "type": "function"
    },
    {
      "inputs": [],
      "name": "name",
      "outputs": [
        {
          "internalType": "string",
          "name": "",
          "type": "string"
        }
      ],
      "stateMutability": "view",
      "type": "function"
    },
    {
      "inputs": [],
      "name": "symbol",
      "outputs": [
        {
          "internalType": "string",
          "name": "",
          "type": "string"
        }
      ],
      "stateMutability": "view",
      "type": "function"
    },
    {
      "inputs": [],
      "name": "totalSupply",
      "outputs": [
        {
          "internalType": "uint256",
          "name": "",
          "type": "uint256"
        }
      ],
      "stateMutability": "view",
      "type": "function"
    },
    {
      "inputs": [
        {
          "internalType": "address",
          "name": "owner",
          "type": "address"
        }
      ],
      "name": "balanceOf",
      "outputs": [
        {
          "internalType": "uint256",
          "name": "",
          "type": "uint256"
        }
      ],
      "stateMutability": "view",
      "type": "function"
    },
    {
      "inputs": [
        {
          "internalType": "uint256",
          "name": "_data",
          "type": "uint256"
        }
      ],
      "name": "getData",
      "outputs": [
        {
          "internalType": "uint256",
          "name": "",
          "type": "uint256"
        }
      ],
      "stateMutability": "view",
      "type": "function"
    },
    {
      "inputs": [
        {
          "internalType": "address",
          "name": "to",
          "type": "address"
        },
        {
          "internalType": "uint256",
          "name": "value",
          "type": "uint256"
        }
      ],
      "name": "transfer",
      "outputs": [
        {
          "internalType": "bool",
          "name": "",
          "type": "bool"
        }
      ],
      "stateMutability": "nonpayable",
      "type": "function"
    },
    {
      "inputs": [
        {
          "internalType": "address",
          "name": "from",
          "type": "address"
        },
        {
          "internalType": "address",
          "name": "to",
          "type": "address"
        },
        {
          "internalType": "uint256",
          "name": "value",
          "type": "uint256"
        }
      ],
      "name": "transferFrom",
      "outputs": [
        {
          "internalType": "bool",
          "name": "",
          "type": "bool"
        }
      ],
      "stateMutability": "nonpayable",
      "type": "function"
    },
    {
      "inputs": [
        {
          "internalType": "address",
          "name": "spender",
          "type": "address"
        },
        {
          "internalType": "uint256",
          "name": "value",
          "type": "uint256"
        }
      ],
      "name": "approve",
      "outputs": [
        {
          "internalType": "bool",
          "name": "",
          "type": "bool"
        }
      ],
      "stateMutability": "nonpayable",
      "type": "function"
    }
  ],
  "bytecode": "0x6080604052683635c9adc5dea000006002556040518060400160405280600a81526020017f48616e6e6168436f696e00000000000000000000000000000000000000000000815250600390805190602001906200005e9291906200010b565b506040518060400160405280600381526020017f484e43000000000000000000000000000000000000000000000000000000000081525060049080519060200190620000ac9291906200010b565b506012600555348015620000bf57600080fd5b506002546000803373ffffffffffffffffffffffffffffffffffffffff1673ffffffffffffffffffffffffffffffffffffffff1681526020019081526020016000208190555062000220565b8280546200011990620001ea565b90600052602060002090601f0160209004810192826200013d576000855562000189565b82601f106200015857805160ff191683800117855562000189565b8280016001018555821562000189579182015b82811115620001885782518255916020019190600101906200016b565b5b5090506200019891906200019c565b5090565b5b80821115620001b75760008160009055506001016200019d565b5090565b7f4e487b7100000000000000000000000000000000000000000000000000000000600052602260045260246000fd5b600060028204905060018216806200020357607f821691505b602082108114156200021a5762000219620001bb565b5b50919050565b610d4880620002306000396000f3fe608060405234801561001057600080fd5b50600436106100a95760003560e01c806327e235e31161007157806327e235e31461017a578063313ce567146101aa57806370a08231146101c857806395d89b41146101f8578063a9059cbb14610216578063dd62ed3e14610246576100a9565b80630178fe3f146100ae57806306fdde03146100de578063095ea7b3146100fc57806318160ddd1461012c57806323b872dd1461014a575b600080fd5b6100c860048036038101906100c391906108e6565b610276565b6040516100d59190610922565b60405180910390f35b6100e6610280565b6040516100f391906109d6565b60405180910390f35b61011660048036038101906101119190610a56565b61030e565b6040516101239190610ab1565b60405180910390f35b610134610400565b6040516101419190610922565b60405180910390f35b610164600480360381019061015f9190610acc565b610406565b6040516101719190610ab1565b60405180910390f35b610194600480360381019061018f9190610b1f565b61062c565b6040516101a19190610922565b60405180910390f35b6101b2610644565b6040516101bf9190610922565b60405180910390f35b6101e260048036038101906101dd9190610b1f565b61064a565b6040516101ef9190610922565b60405180910390f35b610200610692565b60405161020d91906109d6565b60405180910390f35b610230600480360381019061022b9190610a56565b610720565b60405161023d9190610ab1565b60405180910390f35b610260600480360381019061025b9190610b4c565b610886565b60405161026d9190610922565b60405180910390f35b6000819050919050565b6003805461028d90610bbb565b80601f01602080910402602001604051908101604052809291908181526020018280546102b990610bbb565b80156103065780601f106102db57610100808354040283529160200191610306565b820191906000526020600020905b8154815290600101906020018083116102e957829003601f168201915b505050505081565b600081600160003373ffffffffffffffffffffffffffffffffffffffff1673ffffffffffffffffffffffffffffffffffffffff16815260200190815260200160002060008573ffffffffffffffffffffffffffffffffffffffff1673ffffffffffffffffffffffffffffffffffffffff168152602001908152602001600020819055508273ffffffffffffffffffffffffffffffffffffffff163373ffffffffffffffffffffffffffffffffffffffff167f8c5be1e5ebec7d5bd14f71427d1e84f3dd0314c0f7b2291e5b200ac8c7c3b925846040516103ee9190610922565b60405180910390a36001905092915050565b60025481565b6000816104128561064a565b1015610453576040517f08c379a000000000000000000000000000000000000000000000000000000000815260040161044a90610c39565b60405180910390fd5b81600160008673ffffffffffffffffffffffffffffffffffffffff1673ffffffffffffffffffffffffffffffffffffffff16815260200190815260200160002060003373ffffffffffffffffffffffffffffffffffffffff1673ffffffffffffffffffffffffffffffffffffffff168152602001908152602001600020541015610512576040517f08c379a000000000000000000000000000000000000000000000000000000000815260040161050990610c39565b60405180910390fd5b816000808573ffffffffffffffffffffffffffffffffffffffff1673ffffffffffffffffffffffffffffffffffffffff16815260200190815260200160002060008282546105609190610c88565b92505081905550816000808673ffffffffffffffffffffffffffffffffffffffff1673ffffffffffffffffffffffffffffffffffffffff16815260200190815260200160002060008282546105b59190610cde565b925050819055508273ffffffffffffffffffffffffffffffffffffffff168473ffffffffffffffffffffffffffffffffffffffff167fddf252ad1be2c89b69c2b068fc378daa952ba7f163c4a11628f55a4df523b3ef846040516106199190610922565b60405180910390a3600190509392505050565b60006020528060005260406000206000915090505481565b60055481565b60008060008373ffffffffffffffffffffffffffffffffffffffff1673ffffffffffffffffffffffffffffffffffffffff168152602001908152602001600020549050919050565b6004805461069f90610bbb565b80601f01602080910402602001604051908101604052809291908181526020018280546106cb90610bbb565b80156107185780601f106106ed57610100808354040283529160200191610718565b820191906000526020600020905b8154815290600101906020018083116106fb57829003601f168201915b505050505081565b60008161072c3361064a565b101561076d576040517f08c379a000000000000000000000000000000000000000000000000000000000815260040161076490610c39565b60405180910390fd5b816000808573ffffffffffffffffffffffffffffffffffffffff1673ffffffffffffffffffffffffffffffffffffffff16815260200190815260200160002060008282546107bb9190610c88565b92505081905550816000803373ffffffffffffffffffffffffffffffffffffffff1673ffffffffffffffffffffffffffffffffffffffff16815260200190815260200160002060008282546108109190610cde565b925050819055508273ffffffffffffffffffffffffffffffffffffffff163373ffffffffffffffffffffffffffffffffffffffff167fddf252ad1be2c89b69c2b068fc378daa952ba7f163c4a11628f55a4df523b3ef846040516108749190610922565b60405180910390a36001905092915050565b6001602052816000526040600020602052806000526040600020600091509150505481565b600080fd5b6000819050919050565b6108c3816108b0565b81146108ce57600080fd5b50565b6000813590506108e0816108ba565b92915050565b6000602082840312156108fc576108fb6108ab565b5b600061090a848285016108d1565b91505092915050565b61091c816108b0565b82525050565b60006020820190506109376000830184610913565b92915050565b600081519050919050565b600082825260208201905092915050565b60005b8381101561097757808201518184015260208101905061095c565b83811115610986576000848401525b50505050565b6000601f19601f8301169050919050565b60006109a88261093d565b6109b28185610948565b93506109c2818560208601610959565b6109cb8161098c565b840191505092915050565b600060208201905081810360008301526109f0818461099d565b905092915050565b600073ffffffffffffffffffffffffffffffffffffffff82169050919050565b6000610a23826109f8565b9050919050565b610a3381610a18565b8114610a3e57600080fd5b50565b600081359050610a5081610a2a565b92915050565b60008060408385031215610a6d57610a6c6108ab565b5b6000610a7b85828601610a41565b9250506020610a8c858286016108d1565b9150509250929050565b60008115159050919050565b610aab81610a96565b82525050565b6000602082019050610ac66000830184610aa2565b92915050565b600080600060608486031215610ae557610ae46108ab565b5b6000610af386828701610a41565b9350506020610b0486828701610a41565b9250506040610b15868287016108d1565b9150509250925092565b600060208284031215610b3557610b346108ab565b5b6000610b4384828501610a41565b91505092915050565b60008060408385031215610b6357610b626108ab565b5b6000610b7185828601610a41565b9250506020610b8285828601610a41565b9150509250929050565b7f4e487b7100000000000000000000000000000000000000000000000000000000600052602260045260246000fd5b60006002820490506001821680610bd357607f821691505b60208210811415610be757610be6610b8c565b5b50919050565b7f496e73756666696369656e742066756e64730000000000000000000000000000600082015250565b6000610c23601283610948565b9150610c2e82610bed565b602082019050919050565b60006020820190508181036000830152610c5281610c16565b9050919050565b7f4e487b7100000000000000000000000000000000000000000000000000000000600052601160045260246000fd5b6000610c93826108b0565b9150610c9e836108b0565b9250827fffffffffffffffffffffffffffffffffffffffffffffffffffffffffffffffff03821115610cd357610cd2610c59565b5b828201905092915050565b6000610ce9826108b0565b9150610cf4836108b0565b925082821015610d0757610d06610c59565b5b82820390509291505056fea264697066735822122092a05379db59a9e23cffc0f241fcca37432e045a44b8012de6c3e120b377fe7a64736f6c634300080a0033",
  "immutableReferences": {},
  "source": "// SPDX-License-Identifier: MIT\npragma solidity ^0.8.10;\n\ncontract Kelvin {\n    \n    mapping(address => uint) public balances;\n    \n    mapping(address => mapping(address => uint)) public allowance;\n\n    \n    uint public totalSupply = 1000 * 10 ** 18;\n    string public name = \"HannahCoin\";\n    string public symbol = \"HNC\";\n    uint public decimals = 18;\n    \n    event Transfer(address indexed from, address indexed to, uint value);\n    event Approval(address indexed owner, address indexed spender, uint value);\n    // run when the contract is deployed\n    constructor(){\n        balances[msg.sender] = totalSupply;\n    }\n    \n    function balanceOf(address owner) public view returns(uint){\n        return balances[owner];\n    }\n\n    function getData(uint256 _data) public view returns (uint256) {\n        return _data;\n    }\n    \n    function transfer(address to, uint value) public returns(bool){\n        require(balanceOf(msg.sender) >= value, 'Insufficient funds');\n        balances[to] += value;\n        balances[msg.sender] -= value;\n        emit Transfer(msg.sender, to, value);\n        return true;\n    }\n    \n    function transferFrom(address from, address to, uint value) public returns(bool){\n        require(balanceOf(from) >= value, 'Insufficient funds');\n        require(allowance[from][msg.sender] >= value, 'Insufficient funds');\n        balances[to] += value;\n        balances[from] -= value;\n        emit Transfer(from, to, value);\n        return true;\n    }\n    \n    function approve(address spender, uint value) public returns(bool){\n        allowance[msg.sender][spender] = value;\n        emit Approval(msg.sender, spender, value);\n        return true;\n    }\n}",
  "sourcePath": "/Users/huy/Desktop/generate/contracts/Hannah.sol",
  "compiler": {
    "name": "solc",
    "version": "0.8.10+commit.fc410830.Emscripten.clang"
  },
  "schemaVersion": "3.4.4",
  "updatedAt": "2022-04-09T06:26:13.010Z",
  "devdoc": {
    "kind": "dev",
    "methods": {},
    "version": 1
  },
  "userdoc": {
    "kind": "user",
    "methods": {},
    "version": 1
  }
}